{"contracts/rate_movies.sol":{"UserMovieRating":{"abi":[{"anonymous":false,"inputs":[{"indexed":true,"internalType":"address","name":"from","type":"address"},{"components":[{"internalType":"bytes32","name":"movieTitle","type":"bytes32"},{"internalType":"uint256","name":"movieRating","type":"uint256"}],"indexed":false,"internalType":"struct MovieRating","name":"ratingInfo","type":"tuple"}],"name":"RatingInfo","type":"event"},{"anonymous":false,"inputs":[{"indexed":true,"internalType":"address","name":"from","type":"address"},{"indexed":false,"internalType":"bytes32","name":"userId","type":"bytes32"}],"name":"UserInfo","type":"event"},{"inputs":[{"internalType":"bytes32","name":"userId","type":"bytes32"}],"name":"getMovieRatings","outputs":[{"components":[{"internalType":"bytes32","name":"movieTitle","type":"bytes32"},{"internalType":"uint256","name":"movieRating","type":"uint256"}],"internalType":"struct MovieRating[]","name":"","type":"tuple[]"}],"stateMutability":"view","type":"function"},{"inputs":[{"internalType":"bytes32","name":"userId","type":"bytes32"},{"components":[{"internalType":"bytes32","name":"movieTitle","type":"bytes32"},{"internalType":"uint256","name":"movieRating","type":"uint256"}],"internalType":"struct MovieRating","name":"ratingInfo","type":"tuple"}],"name":"setMovieRating","outputs":[],"stateMutability":"nonpayable","type":"function"},{"inputs":[{"internalType":"bytes32","name":"","type":"bytes32"},{"internalType":"uint256","name":"","type":"uint256"}],"name":"transactions","outputs":[{"internalType":"bytes32","name":"movieTitle","type":"bytes32"},{"internalType":"uint256","name":"movieRating","type":"uint256"}],"stateMutability":"view","type":"function"}],"evm":{"bytecode":{"linkReferences":{},"object":"608060405234801561001057600080fd5b506106c8806100206000396000f3fe608060405234801561001057600080fd5b50600436106100415760003560e01c80630fb2d18c14610046578063733504dc146100775780639b752f57146100a7575b600080fd5b610060600480360381019061005b91906103a6565b6100c3565b60405161006e929190610533565b60405180910390f35b610091600480360381019061008c9190610339565b610104565b60405161009e91906104f6565b60405180910390f35b6100c160048036038101906100bc9190610366565b61018a565b005b600360205281600052604060002081815481106100df57600080fd5b9060005260206000209060020201600091509150508060000154908060010154905082565b606060036000838152602001908152602001600020805480602002602001604051908101604052809291908181526020016000905b8282101561017f57838290600052602060002090600202016040518060400160405290816000820154815260200160018201548152505081526020019060010190610139565b505050509050919050565b81600080018190555080600060010160008201518160000155602082015181600101559050506003600083815260200190815260200160002060405180604001604052808360000151815260200183602001518152509080600181540180825580915050600190039060005260206000209060020201600090919091909150600082015181600001556020820151816001015550503373ffffffffffffffffffffffffffffffffffffffff167f6fcbe8bbe021234508a0d9414a20454bc57c75c4c141fa7a62e97c8d9423a2c0836040516102659190610518565b60405180910390a23373ffffffffffffffffffffffffffffffffffffffff167f90262faf6c5475e093823ec940a40b97c21f18ee0b7f4bd7e28be0152cf110d5826040516102b3919061055c565b60405180910390a25050565b6000813590506102ce81610664565b92915050565b6000604082840312156102ea576102e9610649565b5b6102f46040610577565b90506000610304848285016102bf565b600083015250602061031884828501610324565b60208301525092915050565b6000813590506103338161067b565b92915050565b60006020828403121561034f5761034e61064e565b5b600061035d848285016102bf565b91505092915050565b6000806060838503121561037d5761037c61064e565b5b600061038b858286016102bf565b925050602061039c858286016102d4565b9150509250929050565b600080604083850312156103bd576103bc61064e565b5b60006103cb858286016102bf565b92505060206103dc85828601610324565b9150509250929050565b60006103f2838361047a565b60408301905092915050565b6000610409826105ac565b61041381856105c4565b935061041e8361059c565b8060005b8381101561044f57815161043688826103e6565b9750610441836105b7565b925050600181019050610422565b5085935050505092915050565b610465816105d5565b82525050565b610474816105d5565b82525050565b604082016000820151610490600085018261045c565b5060208201516104a360208501826104d8565b50505050565b6040820160008201516104bf600085018261045c565b5060208201516104d260208501826104d8565b50505050565b6104e1816105df565b82525050565b6104f0816105df565b82525050565b6000602082019050818103600083015261051081846103fe565b905092915050565b600060208201905061052d600083018461046b565b92915050565b6000604082019050610548600083018561046b565b61055560208301846104e7565b9392505050565b600060408201905061057160008301846104a9565b92915050565b6000610581610592565b905061058d82826105e9565b919050565b6000604051905090565b6000819050602082019050919050565b600081519050919050565b6000602082019050919050565b600082825260208201905092915050565b6000819050919050565b6000819050919050565b6105f282610653565b810181811067ffffffffffffffff821117156106115761061061061a565b5b80604052505050565b7f4e487b7100000000000000000000000000000000000000000000000000000000600052604160045260246000fd5b600080fd5b600080fd5b6000601f19601f8301169050919050565b61066d816105d5565b811461067857600080fd5b50565b610684816105df565b811461068f57600080fd5b5056fea264697066735822122019c51b88454c24e7d65f6940d4f5352a1f67cd37db3ac47dc18f53568a4fbb6e64736f6c63430008050033","opcodes":"PUSH1 0x80 PUSH1 0x40 MSTORE CALLVALUE DUP1 ISZERO PUSH2 0x10 JUMPI PUSH1 0x0 DUP1 REVERT JUMPDEST POP PUSH2 0x6C8 DUP1 PUSH2 0x20 PUSH1 0x0 CODECOPY PUSH1 0x0 RETURN INVALID PUSH1 0x80 PUSH1 0x40 MSTORE CALLVALUE DUP1 ISZERO PUSH2 0x10 JUMPI PUSH1 0x0 DUP1 REVERT JUMPDEST POP PUSH1 0x4 CALLDATASIZE LT PUSH2 0x41 JUMPI PUSH1 0x0 CALLDATALOAD PUSH1 0xE0 SHR DUP1 PUSH4 0xFB2D18C EQ PUSH2 0x46 JUMPI DUP1 PUSH4 0x733504DC EQ PUSH2 0x77 JUMPI DUP1 PUSH4 0x9B752F57 EQ PUSH2 0xA7 JUMPI JUMPDEST PUSH1 0x0 DUP1 REVERT JUMPDEST PUSH2 0x60 PUSH1 0x4 DUP1 CALLDATASIZE SUB DUP2 ADD SWAP1 PUSH2 0x5B SWAP2 SWAP1 PUSH2 0x3A6 JUMP JUMPDEST PUSH2 0xC3 JUMP JUMPDEST PUSH1 0x40 MLOAD PUSH2 0x6E SWAP3 SWAP2 SWAP1 PUSH2 0x533 JUMP JUMPDEST PUSH1 0x40 MLOAD DUP1 SWAP2 SUB SWAP1 RETURN JUMPDEST PUSH2 0x91 PUSH1 0x4 DUP1 CALLDATASIZE SUB DUP2 ADD SWAP1 PUSH2 0x8C SWAP2 SWAP1 PUSH2 0x339 JUMP JUMPDEST PUSH2 0x104 JUMP JUMPDEST PUSH1 0x40 MLOAD PUSH2 0x9E SWAP2 SWAP1 PUSH2 0x4F6 JUMP JUMPDEST PUSH1 0x40 MLOAD DUP1 SWAP2 SUB SWAP1 RETURN JUMPDEST PUSH2 0xC1 PUSH1 0x4 DUP1 CALLDATASIZE SUB DUP2 ADD SWAP1 PUSH2 0xBC SWAP2 SWAP1 PUSH2 0x366 JUMP JUMPDEST PUSH2 0x18A JUMP JUMPDEST STOP JUMPDEST PUSH1 0x3 PUSH1 0x20 MSTORE DUP2 PUSH1 0x0 MSTORE PUSH1 0x40 PUSH1 0x0 KECCAK256 DUP2 DUP2 SLOAD DUP2 LT PUSH2 0xDF JUMPI PUSH1 0x0 DUP1 REVERT JUMPDEST SWAP1 PUSH1 0x0 MSTORE PUSH1 0x20 PUSH1 0x0 KECCAK256 SWAP1 PUSH1 0x2 MUL ADD PUSH1 0x0 SWAP2 POP SWAP2 POP POP DUP1 PUSH1 0x0 ADD SLOAD SWAP1 DUP1 PUSH1 0x1 ADD SLOAD SWAP1 POP DUP3 JUMP JUMPDEST PUSH1 0x60 PUSH1 0x3 PUSH1 0x0 DUP4 DUP2 MSTORE PUSH1 0x20 ADD SWAP1 DUP2 MSTORE PUSH1 0x20 ADD PUSH1 0x0 KECCAK256 DUP1 SLOAD DUP1 PUSH1 0x20 MUL PUSH1 0x20 ADD PUSH1 0x40 MLOAD SWAP1 DUP2 ADD PUSH1 0x40 MSTORE DUP1 SWAP3 SWAP2 SWAP1 DUP2 DUP2 MSTORE PUSH1 0x20 ADD PUSH1 0x0 SWAP1 JUMPDEST DUP3 DUP3 LT ISZERO PUSH2 0x17F JUMPI DUP4 DUP3 SWAP1 PUSH1 0x0 MSTORE PUSH1 0x20 PUSH1 0x0 KECCAK256 SWAP1 PUSH1 0x2 MUL ADD PUSH1 0x40 MLOAD DUP1 PUSH1 0x40 ADD PUSH1 0x40 MSTORE SWAP1 DUP2 PUSH1 0x0 DUP3 ADD SLOAD DUP2 MSTORE PUSH1 0x20 ADD PUSH1 0x1 DUP3 ADD SLOAD DUP2 MSTORE POP POP DUP2 MSTORE PUSH1 0x20 ADD SWAP1 PUSH1 0x1 ADD SWAP1 PUSH2 0x139 JUMP JUMPDEST POP POP POP POP SWAP1 POP SWAP2 SWAP1 POP JUMP JUMPDEST DUP2 PUSH1 0x0 DUP1 ADD DUP2 SWAP1 SSTORE POP DUP1 PUSH1 0x0 PUSH1 0x1 ADD PUSH1 0x0 DUP3 ADD MLOAD DUP2 PUSH1 0x0 ADD SSTORE PUSH1 0x20 DUP3 ADD MLOAD DUP2 PUSH1 0x1 ADD SSTORE SWAP1 POP POP PUSH1 0x3 PUSH1 0x0 DUP4 DUP2 MSTORE PUSH1 0x20 ADD SWAP1 DUP2 MSTORE PUSH1 0x20 ADD PUSH1 0x0 KECCAK256 PUSH1 0x40 MLOAD DUP1 PUSH1 0x40 ADD PUSH1 0x40 MSTORE DUP1 DUP4 PUSH1 0x0 ADD MLOAD DUP2 MSTORE PUSH1 0x20 ADD DUP4 PUSH1 0x20 ADD MLOAD DUP2 MSTORE POP SWAP1 DUP1 PUSH1 0x1 DUP2 SLOAD ADD DUP1 DUP3 SSTORE DUP1 SWAP2 POP POP PUSH1 0x1 SWAP1 SUB SWAP1 PUSH1 0x0 MSTORE PUSH1 0x20 PUSH1 0x0 KECCAK256 SWAP1 PUSH1 0x2 MUL ADD PUSH1 0x0 SWAP1 SWAP2 SWAP1 SWAP2 SWAP1 SWAP2 POP PUSH1 0x0 DUP3 ADD MLOAD DUP2 PUSH1 0x0 ADD SSTORE PUSH1 0x20 DUP3 ADD MLOAD DUP2 PUSH1 0x1 ADD SSTORE POP POP CALLER PUSH20 0xFFFFFFFFFFFFFFFFFFFFFFFFFFFFFFFFFFFFFFFF AND PUSH32 0x6FCBE8BBE021234508A0D9414A20454BC57C75C4C141FA7A62E97C8D9423A2C0 DUP4 PUSH1 0x40 MLOAD PUSH2 0x265 SWAP2 SWAP1 PUSH2 0x518 JUMP JUMPDEST PUSH1 0x40 MLOAD DUP1 SWAP2 SUB SWAP1 LOG2 CALLER PUSH20 0xFFFFFFFFFFFFFFFFFFFFFFFFFFFFFFFFFFFFFFFF AND PUSH32 0x90262FAF6C5475E093823EC940A40B97C21F18EE0B7F4BD7E28BE0152CF110D5 DUP3 PUSH1 0x40 MLOAD PUSH2 0x2B3 SWAP2 SWAP1 PUSH2 0x55C JUMP JUMPDEST PUSH1 0x40 MLOAD DUP1 SWAP2 SUB SWAP1 LOG2 POP POP JUMP JUMPDEST PUSH1 0x0 DUP2 CALLDATALOAD SWAP1 POP PUSH2 0x2CE DUP2 PUSH2 0x664 JUMP JUMPDEST SWAP3 SWAP2 POP POP JUMP JUMPDEST PUSH1 0x0 PUSH1 0x40 DUP3 DUP5 SUB SLT ISZERO PUSH2 0x2EA JUMPI PUSH2 0x2E9 PUSH2 0x649 JUMP JUMPDEST JUMPDEST PUSH2 0x2F4 PUSH1 0x40 PUSH2 0x577 JUMP JUMPDEST SWAP1 POP PUSH1 0x0 PUSH2 0x304 DUP5 DUP3 DUP6 ADD PUSH2 0x2BF JUMP JUMPDEST PUSH1 0x0 DUP4 ADD MSTORE POP PUSH1 0x20 PUSH2 0x318 DUP5 DUP3 DUP6 ADD PUSH2 0x324 JUMP JUMPDEST PUSH1 0x20 DUP4 ADD MSTORE POP SWAP3 SWAP2 POP POP JUMP JUMPDEST PUSH1 0x0 DUP2 CALLDATALOAD SWAP1 POP PUSH2 0x333 DUP2 PUSH2 0x67B JUMP JUMPDEST SWAP3 SWAP2 POP POP JUMP JUMPDEST PUSH1 0x0 PUSH1 0x20 DUP3 DUP5 SUB SLT ISZERO PUSH2 0x34F JUMPI PUSH2 0x34E PUSH2 0x64E JUMP JUMPDEST JUMPDEST PUSH1 0x0 PUSH2 0x35D DUP5 DUP3 DUP6 ADD PUSH2 0x2BF JUMP JUMPDEST SWAP2 POP POP SWAP3 SWAP2 POP POP JUMP JUMPDEST PUSH1 0x0 DUP1 PUSH1 0x60 DUP4 DUP6 SUB SLT ISZERO PUSH2 0x37D JUMPI PUSH2 0x37C PUSH2 0x64E JUMP JUMPDEST JUMPDEST PUSH1 0x0 PUSH2 0x38B DUP6 DUP3 DUP7 ADD PUSH2 0x2BF JUMP JUMPDEST SWAP3 POP POP PUSH1 0x20 PUSH2 0x39C DUP6 DUP3 DUP7 ADD PUSH2 0x2D4 JUMP JUMPDEST SWAP2 POP POP SWAP3 POP SWAP3 SWAP1 POP JUMP JUMPDEST PUSH1 0x0 DUP1 PUSH1 0x40 DUP4 DUP6 SUB SLT ISZERO PUSH2 0x3BD JUMPI PUSH2 0x3BC PUSH2 0x64E JUMP JUMPDEST JUMPDEST PUSH1 0x0 PUSH2 0x3CB DUP6 DUP3 DUP7 ADD PUSH2 0x2BF JUMP JUMPDEST SWAP3 POP POP PUSH1 0x20 PUSH2 0x3DC DUP6 DUP3 DUP7 ADD PUSH2 0x324 JUMP JUMPDEST SWAP2 POP POP SWAP3 POP SWAP3 SWAP1 POP JUMP JUMPDEST PUSH1 0x0 PUSH2 0x3F2 DUP4 DUP4 PUSH2 0x47A JUMP JUMPDEST PUSH1 0x40 DUP4 ADD SWAP1 POP SWAP3 SWAP2 POP POP JUMP JUMPDEST PUSH1 0x0 PUSH2 0x409 DUP3 PUSH2 0x5AC JUMP JUMPDEST PUSH2 0x413 DUP2 DUP6 PUSH2 0x5C4 JUMP JUMPDEST SWAP4 POP PUSH2 0x41E DUP4 PUSH2 0x59C JUMP JUMPDEST DUP1 PUSH1 0x0 JUMPDEST DUP4 DUP2 LT ISZERO PUSH2 0x44F JUMPI DUP2 MLOAD PUSH2 0x436 DUP9 DUP3 PUSH2 0x3E6 JUMP JUMPDEST SWAP8 POP PUSH2 0x441 DUP4 PUSH2 0x5B7 JUMP JUMPDEST SWAP3 POP POP PUSH1 0x1 DUP2 ADD SWAP1 POP PUSH2 0x422 JUMP JUMPDEST POP DUP6 SWAP4 POP POP POP POP SWAP3 SWAP2 POP POP JUMP JUMPDEST PUSH2 0x465 DUP2 PUSH2 0x5D5 JUMP JUMPDEST DUP3 MSTORE POP POP JUMP JUMPDEST PUSH2 0x474 DUP2 PUSH2 0x5D5 JUMP JUMPDEST DUP3 MSTORE POP POP JUMP JUMPDEST PUSH1 0x40 DUP3 ADD PUSH1 0x0 DUP3 ADD MLOAD PUSH2 0x490 PUSH1 0x0 DUP6 ADD DUP3 PUSH2 0x45C JUMP JUMPDEST POP PUSH1 0x20 DUP3 ADD MLOAD PUSH2 0x4A3 PUSH1 0x20 DUP6 ADD DUP3 PUSH2 0x4D8 JUMP JUMPDEST POP POP POP POP JUMP JUMPDEST PUSH1 0x40 DUP3 ADD PUSH1 0x0 DUP3 ADD MLOAD PUSH2 0x4BF PUSH1 0x0 DUP6 ADD DUP3 PUSH2 0x45C JUMP JUMPDEST POP PUSH1 0x20 DUP3 ADD MLOAD PUSH2 0x4D2 PUSH1 0x20 DUP6 ADD DUP3 PUSH2 0x4D8 JUMP JUMPDEST POP POP POP POP JUMP JUMPDEST PUSH2 0x4E1 DUP2 PUSH2 0x5DF JUMP JUMPDEST DUP3 MSTORE POP POP JUMP JUMPDEST PUSH2 0x4F0 DUP2 PUSH2 0x5DF JUMP JUMPDEST DUP3 MSTORE POP POP JUMP JUMPDEST PUSH1 0x0 PUSH1 0x20 DUP3 ADD SWAP1 POP DUP2 DUP2 SUB PUSH1 0x0 DUP4 ADD MSTORE PUSH2 0x510 DUP2 DUP5 PUSH2 0x3FE JUMP JUMPDEST SWAP1 POP SWAP3 SWAP2 POP POP JUMP JUMPDEST PUSH1 0x0 PUSH1 0x20 DUP3 ADD SWAP1 POP PUSH2 0x52D PUSH1 0x0 DUP4 ADD DUP5 PUSH2 0x46B JUMP JUMPDEST SWAP3 SWAP2 POP POP JUMP JUMPDEST PUSH1 0x0 PUSH1 0x40 DUP3 ADD SWAP1 POP PUSH2 0x548 PUSH1 0x0 DUP4 ADD DUP6 PUSH2 0x46B JUMP JUMPDEST PUSH2 0x555 PUSH1 0x20 DUP4 ADD DUP5 PUSH2 0x4E7 JUMP JUMPDEST SWAP4 SWAP3 POP POP POP JUMP JUMPDEST PUSH1 0x0 PUSH1 0x40 DUP3 ADD SWAP1 POP PUSH2 0x571 PUSH1 0x0 DUP4 ADD DUP5 PUSH2 0x4A9 JUMP JUMPDEST SWAP3 SWAP2 POP POP JUMP JUMPDEST PUSH1 0x0 PUSH2 0x581 PUSH2 0x592 JUMP JUMPDEST SWAP1 POP PUSH2 0x58D DUP3 DUP3 PUSH2 0x5E9 JUMP JUMPDEST SWAP2 SWAP1 POP JUMP JUMPDEST PUSH1 0x0 PUSH1 0x40 MLOAD SWAP1 POP SWAP1 JUMP JUMPDEST PUSH1 0x0 DUP2 SWAP1 POP PUSH1 0x20 DUP3 ADD SWAP1 POP SWAP2 SWAP1 POP JUMP JUMPDEST PUSH1 0x0 DUP2 MLOAD SWAP1 POP SWAP2 SWAP1 POP JUMP JUMPDEST PUSH1 0x0 PUSH1 0x20 DUP3 ADD SWAP1 POP SWAP2 SWAP1 POP JUMP JUMPDEST PUSH1 0x0 DUP3 DUP3 MSTORE PUSH1 0x20 DUP3 ADD SWAP1 POP SWAP3 SWAP2 POP POP JUMP JUMPDEST PUSH1 0x0 DUP2 SWAP1 POP SWAP2 SWAP1 POP JUMP JUMPDEST PUSH1 0x0 DUP2 SWAP1 POP SWAP2 SWAP1 POP JUMP JUMPDEST PUSH2 0x5F2 DUP3 PUSH2 0x653 JUMP JUMPDEST DUP2 ADD DUP2 DUP2 LT PUSH8 0xFFFFFFFFFFFFFFFF DUP3 GT OR ISZERO PUSH2 0x611 JUMPI PUSH2 0x610 PUSH2 0x61A JUMP JUMPDEST JUMPDEST DUP1 PUSH1 0x40 MSTORE POP POP POP JUMP JUMPDEST PUSH32 0x4E487B7100000000000000000000000000000000000000000000000000000000 PUSH1 0x0 MSTORE PUSH1 0x41 PUSH1 0x4 MSTORE PUSH1 0x24 PUSH1 0x0 REVERT JUMPDEST PUSH1 0x0 DUP1 REVERT JUMPDEST PUSH1 0x0 DUP1 REVERT JUMPDEST PUSH1 0x0 PUSH1 0x1F NOT PUSH1 0x1F DUP4 ADD AND SWAP1 POP SWAP2 SWAP1 POP JUMP JUMPDEST PUSH2 0x66D DUP2 PUSH2 0x5D5 JUMP JUMPDEST DUP2 EQ PUSH2 0x678 JUMPI PUSH1 0x0 DUP1 REVERT JUMPDEST POP JUMP JUMPDEST PUSH2 0x684 DUP2 PUSH2 0x5DF JUMP JUMPDEST DUP2 EQ PUSH2 0x68F JUMPI PUSH1 0x0 DUP1 REVERT JUMPDEST POP JUMP INVALID LOG2 PUSH5 0x6970667358 0x22 SLT KECCAK256 NOT 0xC5 SHL DUP9 GASLIMIT 0x4C 0x24 0xE7 0xD6 0x5F PUSH10 0x40D4F5352A1F67CD37DB GASPRICE 0xC4 PUSH30 0xC18F53568A4FBB6E64736F6C634300080500330000000000000000000000 "},"methodIdentifiers":{"getMovieRatings(bytes32)":"733504dc","setMovieRating(bytes32,(bytes32,uint256))":"9b752f57","transactions(bytes32,uint256)":"0fb2d18c"}}}}}