{
  "_format": "hh-sol-artifact-1",
  "contractName": "UserMovieRating",
  "sourceName": "contracts/rate_movies.sol",
  "abi": [
    {
      "anonymous": false,
      "inputs": [
        {
          "indexed": true,
          "internalType": "address",
          "name": "from",
          "type": "address"
        },
        {
          "components": [
            {
              "internalType": "bytes32",
              "name": "movieTitle",
              "type": "bytes32"
            },
            {
              "internalType": "uint256",
              "name": "movieRating",
              "type": "uint256"
            }
          ],
          "indexed": false,
          "internalType": "struct MovieRating",
          "name": "ratingInfo",
          "type": "tuple"
        }
      ],
      "name": "RatingInfo",
      "type": "event"
    },
    {
      "anonymous": false,
      "inputs": [
        {
          "indexed": true,
          "internalType": "address",
          "name": "from",
          "type": "address"
        },
        {
          "indexed": false,
          "internalType": "bytes32",
          "name": "userId",
          "type": "bytes32"
        }
      ],
      "name": "UserInfo",
      "type": "event"
    },
    {
      "inputs": [
        {
          "internalType": "bytes32",
          "name": "userId",
          "type": "bytes32"
        }
      ],
      "name": "getMovieRatings",
      "outputs": [
        {
          "components": [
            {
              "internalType": "bytes32",
              "name": "movieTitle",
              "type": "bytes32"
            },
            {
              "internalType": "uint256",
              "name": "movieRating",
              "type": "uint256"
            }
          ],
          "internalType": "struct MovieRating[]",
          "name": "",
          "type": "tuple[]"
        }
      ],
      "stateMutability": "view",
      "type": "function"
    },
    {
      "inputs": [
        {
          "internalType": "bytes32",
          "name": "userId",
          "type": "bytes32"
        },
        {
          "components": [
            {
              "internalType": "bytes32",
              "name": "movieTitle",
              "type": "bytes32"
            },
            {
              "internalType": "uint256",
              "name": "movieRating",
              "type": "uint256"
            }
          ],
          "internalType": "struct MovieRating",
          "name": "ratingInfo",
          "type": "tuple"
        }
      ],
      "name": "setMovieRating",
      "outputs": [],
      "stateMutability": "nonpayable",
      "type": "function"
    },
    {
      "inputs": [
        {
          "internalType": "bytes32",
          "name": "",
          "type": "bytes32"
        },
        {
          "internalType": "uint256",
          "name": "",
          "type": "uint256"
        }
      ],
      "name": "transactions",
      "outputs": [
        {
          "internalType": "bytes32",
          "name": "movieTitle",
          "type": "bytes32"
        },
        {
          "internalType": "uint256",
          "name": "movieRating",
          "type": "uint256"
        }
      ],
      "stateMutability": "view",
      "type": "function"
    }
  ],
  "bytecode": "0x608060405234801561001057600080fd5b506106c8806100206000396000f3fe608060405234801561001057600080fd5b50600436106100415760003560e01c80630fb2d18c14610046578063733504dc146100775780639b752f57146100a7575b600080fd5b610060600480360381019061005b91906103a6565b6100c3565b60405161006e929190610533565b60405180910390f35b610091600480360381019061008c9190610339565b610104565b60405161009e91906104f6565b60405180910390f35b6100c160048036038101906100bc9190610366565b61018a565b005b600360205281600052604060002081815481106100df57600080fd5b9060005260206000209060020201600091509150508060000154908060010154905082565b606060036000838152602001908152602001600020805480602002602001604051908101604052809291908181526020016000905b8282101561017f57838290600052602060002090600202016040518060400160405290816000820154815260200160018201548152505081526020019060010190610139565b505050509050919050565b81600080018190555080600060010160008201518160000155602082015181600101559050506003600083815260200190815260200160002060405180604001604052808360000151815260200183602001518152509080600181540180825580915050600190039060005260206000209060020201600090919091909150600082015181600001556020820151816001015550503373ffffffffffffffffffffffffffffffffffffffff167f6fcbe8bbe021234508a0d9414a20454bc57c75c4c141fa7a62e97c8d9423a2c0836040516102659190610518565b60405180910390a23373ffffffffffffffffffffffffffffffffffffffff167f90262faf6c5475e093823ec940a40b97c21f18ee0b7f4bd7e28be0152cf110d5826040516102b3919061055c565b60405180910390a25050565b6000813590506102ce81610664565b92915050565b6000604082840312156102ea576102e9610649565b5b6102f46040610577565b90506000610304848285016102bf565b600083015250602061031884828501610324565b60208301525092915050565b6000813590506103338161067b565b92915050565b60006020828403121561034f5761034e61064e565b5b600061035d848285016102bf565b91505092915050565b6000806060838503121561037d5761037c61064e565b5b600061038b858286016102bf565b925050602061039c858286016102d4565b9150509250929050565b600080604083850312156103bd576103bc61064e565b5b60006103cb858286016102bf565b92505060206103dc85828601610324565b9150509250929050565b60006103f2838361047a565b60408301905092915050565b6000610409826105ac565b61041381856105c4565b935061041e8361059c565b8060005b8381101561044f57815161043688826103e6565b9750610441836105b7565b925050600181019050610422565b5085935050505092915050565b610465816105d5565b82525050565b610474816105d5565b82525050565b604082016000820151610490600085018261045c565b5060208201516104a360208501826104d8565b50505050565b6040820160008201516104bf600085018261045c565b5060208201516104d260208501826104d8565b50505050565b6104e1816105df565b82525050565b6104f0816105df565b82525050565b6000602082019050818103600083015261051081846103fe565b905092915050565b600060208201905061052d600083018461046b565b92915050565b6000604082019050610548600083018561046b565b61055560208301846104e7565b9392505050565b600060408201905061057160008301846104a9565b92915050565b6000610581610592565b905061058d82826105e9565b919050565b6000604051905090565b6000819050602082019050919050565b600081519050919050565b6000602082019050919050565b600082825260208201905092915050565b6000819050919050565b6000819050919050565b6105f282610653565b810181811067ffffffffffffffff821117156106115761061061061a565b5b80604052505050565b7f4e487b7100000000000000000000000000000000000000000000000000000000600052604160045260246000fd5b600080fd5b600080fd5b6000601f19601f8301169050919050565b61066d816105d5565b811461067857600080fd5b50565b610684816105df565b811461068f57600080fd5b5056fea264697066735822122019c51b88454c24e7d65f6940d4f5352a1f67cd37db3ac47dc18f53568a4fbb6e64736f6c63430008050033",
  "linkReferences": {},
  "deployedLinkReferences": {}
}